{
  "contractName": "FormalVerification",
  "abi": [
    {
      "inputs": [],
      "payable": false,
      "stateMutability": "nonpayable",
      "type": "constructor"
    },
    {
      "constant": false,
      "inputs": [
        {
          "internalType": "uint256",
          "name": "flag",
          "type": "uint256"
        },
        {
          "internalType": "uint256",
          "name": "reportFlag",
          "type": "uint256"
        },
        {
          "internalType": "uint256",
          "name": "reportscore",
          "type": "uint256"
        }
      ],
      "name": "setReportScore",
      "outputs": [],
      "payable": false,
      "stateMutability": "nonpayable",
      "type": "function"
    },
    {
      "constant": true,
      "inputs": [
        {
          "internalType": "uint256",
          "name": "flag",
          "type": "uint256"
        },
        {
          "internalType": "uint256",
          "name": "reportFlag",
          "type": "uint256"
        }
      ],
      "name": "getReportScore",
      "outputs": [
        {
          "internalType": "uint256",
          "name": "ret",
          "type": "uint256"
        }
      ],
      "payable": false,
      "stateMutability": "view",
      "type": "function"
    },
    {
      "constant": false,
      "inputs": [
        {
          "internalType": "uint256",
          "name": "flag",
          "type": "uint256"
        },
        {
          "internalType": "uint256",
          "name": "currentScore",
          "type": "uint256"
        }
      ],
      "name": "setAuditScore",
      "outputs": [],
      "payable": false,
      "stateMutability": "nonpayable",
      "type": "function"
    },
    {
      "constant": true,
      "inputs": [
        {
          "internalType": "uint256",
          "name": "flag",
          "type": "uint256"
        }
      ],
      "name": "getAuditScore",
      "outputs": [
        {
          "internalType": "uint256",
          "name": "ret",
          "type": "uint256"
        }
      ],
      "payable": false,
      "stateMutability": "view",
      "type": "function"
    },
    {
      "constant": false,
      "inputs": [],
      "name": "setAuditorScore",
      "outputs": [],
      "payable": false,
      "stateMutability": "nonpayable",
      "type": "function"
    },
    {
      "constant": true,
      "inputs": [
        {
          "internalType": "uint256",
          "name": "flag",
          "type": "uint256"
        },
        {
          "internalType": "uint256",
          "name": "period",
          "type": "uint256"
        }
      ],
      "name": "TimeOut",
      "outputs": [
        {
          "internalType": "uint256",
          "name": "ret",
          "type": "uint256"
        }
      ],
      "payable": false,
      "stateMutability": "view",
      "type": "function"
    },
    {
      "constant": false,
      "inputs": [
        {
          "internalType": "uint256",
          "name": "flag",
          "type": "uint256"
        },
        {
          "internalType": "uint256",
          "name": "timeOut",
          "type": "uint256"
        },
        {
          "internalType": "uint256",
          "name": "count",
          "type": "uint256"
        },
        {
          "internalType": "string",
          "name": "Hash",
          "type": "string"
        }
      ],
      "name": "AfterAudit",
      "outputs": [],
      "payable": false,
      "stateMutability": "nonpayable",
      "type": "function"
    },
    {
      "constant": true,
      "inputs": [
        {
          "internalType": "uint256",
          "name": "flag",
          "type": "uint256"
        }
      ],
      "name": "getAuditorScore",
      "outputs": [
        {
          "internalType": "uint256",
          "name": "ret",
          "type": "uint256"
        }
      ],
      "payable": false,
      "stateMutability": "view",
      "type": "function"
    },
    {
      "constant": false,
      "inputs": [
        {
          "internalType": "uint256",
          "name": "flag",
          "type": "uint256"
        }
      ],
      "name": "Transfer",
      "outputs": [],
      "payable": true,
      "stateMutability": "payable",
      "type": "function"
    },
    {
      "constant": true,
      "inputs": [],
      "name": "getBalance",
      "outputs": [
        {
          "internalType": "uint256",
          "name": "ret",
          "type": "uint256"
        }
      ],
      "payable": false,
      "stateMutability": "view",
      "type": "function"
    }
  ],
  "bytecode": "0x608060405234801561001057600080fd5b50336000806101000a81548173ffffffffffffffffffffffffffffffffffffffff021916908373ffffffffffffffffffffffffffffffffffffffff16021790555033600160006101000a81548173ffffffffffffffffffffffffffffffffffffffff021916908373ffffffffffffffffffffffffffffffffffffffff1602179055506203f480600381905550731ebd9225519e4549ad418c814951da2d84ac6438600260006101000a81548173ffffffffffffffffffffffffffffffffffffffff021916908373ffffffffffffffffffffffffffffffffffffffff160217905550611039806101006000396000f3fe6080604052600436106100915760003560e01c80638cae3ffd116100595780638cae3ffd146101e6578063abf57288146101fd578063c810ad8e14610256578063d3d304ca146102a5578063e8fef8521461038b57610091565b80630563451f1461009657806312065fe0146100e5578063248dd407146101105780633b2638721461013e57806366559f5f14610197575b600080fd5b3480156100a257600080fd5b506100e3600480360360608110156100b957600080fd5b810190808035906020019092919080359060200190929190803590602001909291905050506103d0565b005b3480156100f157600080fd5b506100fa6104bb565b6040518082815260200191505060405180910390f35b61013c6004803603602081101561012657600080fd5b81019080803590602001909291905050506104da565b005b34801561014a57600080fd5b506101816004803603604081101561016157600080fd5b8101908080359060200190929190803590602001909291905050506106ae565b6040518082815260200191505060405180910390f35b3480156101a357600080fd5b506101d0600480360360208110156101ba57600080fd5b810190808035906020019092919050505061079a565b6040518082815260200191505060405180910390f35b3480156101f257600080fd5b506101fb6108b1565b005b34801561020957600080fd5b506102406004803603604081101561022057600080fd5b810190808035906020019092919080359060200190929190505050610a70565b6040518082815260200191505060405180910390f35b34801561026257600080fd5b5061028f6004803603602081101561027957600080fd5b8101908080359060200190929190505050610b5d565b6040518082815260200191505060405180910390f35b3480156102b157600080fd5b50610389600480360360808110156102c857600080fd5b810190808035906020019092919080359060200190929190803590602001909291908035906020019064010000000081111561030357600080fd5b82018360208201111561031557600080fd5b8035906020019184600183028401116401000000008311171561033757600080fd5b91908080601f016020809104026020016040519081016040528093929190818152602001838380828437600081840152601f19601f820116905080830192505050505050509192919290505050610c74565b005b34801561039757600080fd5b506103ce600480360360408110156103ae57600080fd5b810190808035906020019092919080359060200190929190505050610e1b565b005b60018314801561042c57506000809054906101000a900473ffffffffffffffffffffffffffffffffffffffff1673ffffffffffffffffffffffffffffffffffffffff163373ffffffffffffffffffffffffffffffffffffffff16145b61049e576040517f08c379a000000000000000000000000000000000000000000000000000000000815260040180806020018281038252601f8152602001807f5761726e696e673a20596f7520617265206e6f74207065726d6974746564210081525060200191505060405180910390fd5b806006600084815260200190815260200160002081905550505050565b60003373ffffffffffffffffffffffffffffffffffffffff1631905090565b6000811480156105375750600160009054906101000a900473ffffffffffffffffffffffffffffffffffffffff1673ffffffffffffffffffffffffffffffffffffffff163373ffffffffffffffffffffffffffffffffffffffff16145b6105a9576040517f08c379a000000000000000000000000000000000000000000000000000000000815260040180806020018281038252601f8152602001807f5761726e696e673a20596f7520617265206e6f74207065726d6974746564210081525060200191505060405180910390fd5b662386f26fc10000600160009054906101000a900473ffffffffffffffffffffffffffffffffffffffff1673ffffffffffffffffffffffffffffffffffffffff16311015610642576040517f08c379a000000000000000000000000000000000000000000000000000000000815260040180806020018281038252602e815260200180610fd7602e913960400191505060405180910390fd5b600260009054906101000a900473ffffffffffffffffffffffffffffffffffffffff1673ffffffffffffffffffffffffffffffffffffffff166108fc349081150290604051600060405180830381858888f193505050501580156106aa573d6000803e3d6000fd5b5050565b600060018314801561070c57506000809054906101000a900473ffffffffffffffffffffffffffffffffffffffff1673ffffffffffffffffffffffffffffffffffffffff163373ffffffffffffffffffffffffffffffffffffffff16145b61077e576040517f08c379a000000000000000000000000000000000000000000000000000000000815260040180806020018281038252601f8152602001807f5761726e696e673a20596f7520617265206e6f74207065726d6974746564210081525060200191505060405180910390fd5b6006600083815260200190815260200160002054905092915050565b60006001821480156107f857506000809054906101000a900473ffffffffffffffffffffffffffffffffffffffff1673ffffffffffffffffffffffffffffffffffffffff163373ffffffffffffffffffffffffffffffffffffffff16145b61086a576040517f08c379a000000000000000000000000000000000000000000000000000000000815260040180806020018281038252601f8152602001807f5761726e696e673a20596f7520617265206e6f74207065726d6974746564210081525060200191505060405180910390fd5b600460003373ffffffffffffffffffffffffffffffffffffffff1673ffffffffffffffffffffffffffffffffffffffff168152602001908152602001600020549050919050565b60006004600073f25bb2d9f47da0b0aca59f73d677e651dd8aaf2073ffffffffffffffffffffffffffffffffffffffff1673ffffffffffffffffffffffffffffffffffffffff16815260200190815260200160002081905550600060046000738f3cc6254aae17815de13bba0081c72476db5abe73ffffffffffffffffffffffffffffffffffffffff1673ffffffffffffffffffffffffffffffffffffffff168152602001908152602001600020819055506000600460007353c30f23c397ebe5811d5f0ce482938e0b7220ac73ffffffffffffffffffffffffffffffffffffffff1673ffffffffffffffffffffffffffffffffffffffff16815260200190815260200160002081905550600060046000731242c0939a04a9d73c54907184c0d8f6a50d7c5173ffffffffffffffffffffffffffffffffffffffff1673ffffffffffffffffffffffffffffffffffffffff168152602001908152602001600020819055506000600460007336344fc242c2ac775b845262ada4b9f313f3329b73ffffffffffffffffffffffffffffffffffffffff1673ffffffffffffffffffffffffffffffffffffffff16815260200190815260200160002081905550565b6000600183148015610ace57506000809054906101000a900473ffffffffffffffffffffffffffffffffffffffff1673ffffffffffffffffffffffffffffffffffffffff163373ffffffffffffffffffffffffffffffffffffffff16145b610b40576040517f08c379a000000000000000000000000000000000000000000000000000000000815260040180806020018281038252601f8152602001807f5761726e696e673a20596f7520617265206e6f74207065726d6974746564210081525060200191505060405180910390fd5b6003548211610b525760019050610b57565b600290505b92915050565b6000600182148015610bbb57506000809054906101000a900473ffffffffffffffffffffffffffffffffffffffff1673ffffffffffffffffffffffffffffffffffffffff163373ffffffffffffffffffffffffffffffffffffffff16145b610c2d576040517f08c379a000000000000000000000000000000000000000000000000000000000815260040180806020018281038252601f8152602001807f5761726e696e673a20596f7520617265206e6f74207065726d6974746564210081525060200191505060405180910390fd5b600460003373ffffffffffffffffffffffffffffffffffffffff1673ffffffffffffffffffffffffffffffffffffffff168152602001908152602001600020549050919050565b600184148015610cd057506000809054906101000a900473ffffffffffffffffffffffffffffffffffffffff1673ffffffffffffffffffffffffffffffffffffffff163373ffffffffffffffffffffffffffffffffffffffff16145b610d42576040517f08c379a000000000000000000000000000000000000000000000000000000000815260040180806020018281038252601f8152602001807f5761726e696e673a20596f7520617265206e6f74207065726d6974746564210081525060200191505060405180910390fd5b80600560008481526020019081526020016000209080519060200190610d69929190610f31565b506002831415610dc6576032600460003373ffffffffffffffffffffffffffffffffffffffff1673ffffffffffffffffffffffffffffffffffffffff16815260200190815260200160002060008282540192505081905550610e15565b6064600460003373ffffffffffffffffffffffffffffffffffffffff1673ffffffffffffffffffffffffffffffffffffffff168152602001908152602001600020600082825401925050819055505b50505050565b600182148015610e7757506000809054906101000a900473ffffffffffffffffffffffffffffffffffffffff1673ffffffffffffffffffffffffffffffffffffffff163373ffffffffffffffffffffffffffffffffffffffff16145b610ee9576040517f08c379a000000000000000000000000000000000000000000000000000000000815260040180806020018281038252601f8152602001807f5761726e696e673a20596f7520617265206e6f74207065726d6974746564210081525060200191505060405180910390fd5b80600460003373ffffffffffffffffffffffffffffffffffffffff1673ffffffffffffffffffffffffffffffffffffffff168152602001908152602001600020819055505050565b828054600181600116156101000203166002900490600052602060002090601f016020900481019282601f10610f7257805160ff1916838001178555610fa0565b82800160010185558215610fa0579182015b82811115610f9f578251825591602001919060010190610f84565b5b509050610fad9190610fb1565b5090565b610fd391905b80821115610fcf576000816000905550600101610fb7565b5090565b9056fe5761726e696e673a20596f7572206163636f756e742062616c616e636520697320696e73756666696369656e742ea265627a7a7231582030d4773433d3ae173be504247662d6cd2055e1b2bfcb0000c4010d1a82999ffd64736f6c634300050c0032",
  "source": "pragma solidity >=0.4.17 <=0.6.0;\ncontract FormalVerification {\n\n    address auditor;\n    address user;\n    address payable Beneficiary;\n    uint timeOutLimit;\n    mapping(address => uint) auditors;            // 审计人员的积分\n    mapping(uint => string) reportHash;      // 审计人员的报告hash\n    mapping(uint => uint) reportScore;            // 智能合约报告的分数(bytes可以是hash的字符串形式)\n\n    constructor() public { \n        auditor = msg.sender;        // 审计人员 \n        user = msg.sender;           // 用户\n        timeOutLimit = 259200;       // 审计人员审核智能合约的时间为三天\n        Beneficiary = 0x1EBD9225519E4549ad418c814951da2d84Ac6438;       //收款方的地址\n    }\n\n\n    function setReportScore(uint flag,uint reportFlag ,uint reportscore) public {          // 上链智能合约当前的分数\n        require(flag == 1 && msg.sender == auditor,\"Warning: You are not permitted!\");\n        reportScore[reportFlag] = reportscore;\n    }\n\n    function getReportScore(uint flag,uint reportFlag) public view returns(uint ret){\n        require(flag == 1 && msg.sender == auditor,\"Warning: You are not permitted!\");\n        ret = reportScore[reportFlag];\n    }\n\n    function setAuditScore(uint flag,uint currentScore) public {                 // 上链当前审计人员的新分数和当前审计报告的个数\n        require(flag == 1 && msg.sender == auditor,\"Warning: You are not permitted!\");\n        auditors[msg.sender] = currentScore;\n    }\n\n    function getAuditScore(uint flag) public view returns(uint ret){\n        require(flag == 1 && msg.sender == auditor,\"Warning: You are not permitted!\");\n        ret = auditors[msg.sender];\n    }\n\n    function setAuditorScore() public{\n        auditors[0xf25bb2d9f47da0B0acA59f73d677E651Dd8aAf20] = 0;\n        auditors[0x8f3cc6254AAE17815de13BbA0081C72476Db5abE] = 0;\n        auditors[0x53C30f23c397eBE5811D5f0CE482938E0B7220ac] = 0;\n        auditors[0x1242C0939a04A9d73C54907184C0D8f6A50D7c51] = 0;\n        auditors[0x36344Fc242c2ac775B845262adA4B9F313f3329b] = 0;\n    }\n\n    function TimeOut(uint flag,uint period) public view returns(uint ret){            // 判断审计人员是否超时\n        require(flag == 1 && msg.sender == auditor,\"Warning: You are not permitted!\");      // 审计人员\n        if(period <= timeOutLimit){\n            ret = 1;\n        }\n        else{\n            ret = 2;\n       }\n    }\n\n    function AfterAudit(uint flag,uint timeOut,uint count,string memory Hash) public {          // 审计人员提交后获得新的积分\n        require(flag == 1 && msg.sender == auditor,\"Warning: You are not permitted!\");          // 审计人员\n        reportHash[count] = Hash;                                             // 存储新审计的报告hash值\n        if(timeOut == 2){                                                     // 判断是否超时，并计算新的积分\n            auditors[msg.sender] += 50;\n        }\n        else{\n            auditors[msg.sender] += 100;\n        }\n    }\n\n    function getAuditorScore(uint flag) public view returns(uint ret){\n        require(flag == 1 && msg.sender == auditor,\"Warning: You are not permitted!\");      // 审计人员\n        ret = auditors[msg.sender];\n    }\n\n    function Transfer(uint flag) public payable {           // 用户在提交智能合约审计时转账\n        require(flag == 0 && msg.sender == user,\"Warning: You are not permitted!\");\n        require(user.balance >= 10000000000000000 wei,\"Warning: Your account balance is insufficient.\");\n        Beneficiary.transfer(msg.value);\n    }\n\n    function getBalance() public view returns(uint ret){\n        ret = msg.sender.balance;\n    }\n}",
  "sourcePath": "/Users/c.l.a.y./Downloads/ballot-demo-master/solidity/contracts/FormalVerification.sol",
  "compiler": {
    "name": "solc",
    "version": "0.5.12+commit.7709ece9.Emscripten.clang"
  },
  "schemaVersion": "3.0.19",
  "updatedAt": "2019-12-24T01:02:08.491Z",
  "networkType": "ethereum",
  "devdoc": {
    "methods": {}
  },
  "userdoc": {
    "methods": {}
  }
}